:0200000480007A
:100000006F00C0006F0000006F00C0029702000088
:10001000938282027390523073500030735040309C
:1000200097E100009381013117E103001301815D25
:100030006F000024130101F8232011002322210066
:10004000232431002326410023285100232A610064
:10005000232C7100232E8100232091022322A10250
:100060002324B1022326C1022328D102232AE1023C
:10007000232CF102232E0103232011052322210525
:10008000232431052326410523285105232A610510
:10009000232C7105232E8105232091072322A107FC
:1000A0002324B1072326C1072328D107232AE107E8
:1000B000232CF107F3221034232E5106732520340C
:1000C000F325103413060100EF00C06273101534DD
:1000D000B72200009382028073A0023083200100C7
:1000E00003214100832181000322C10083220101F9
:1000F00003234101832381010324C10183240102DD
:1001000003254102832581020326C10283260103C0
:1001100003274103832781030328C10383280104A4
:100120000329410483298104032AC104832A010588
:10013000032B4105832B8105032CC105832C01066C
:10014000032D4106832D8106032EC106832E010750
:10015000032F4107832F810713010108730020300B
:10016000130101FE232E1100232C81001304010230
:10017000EF200020930705002326F4FE8327C4FE0A
:1001800063860700930710006F008001EF200008CE
:10019000EF104064EFA0100AEF20800B6F0000000A
:1001A000138507008320C10103248101130101028B
:1001B0006780000000000000130101FE232E810073
:1001C000130401022326A4FE2324B4FE2322C4FE2A
:1001D0006F00C0028327C4FE03A70700832784FEA5
:1001E00023A0E7008327C4FE938747002326F4FE5D
:1001F000832784FE938747002324F4FE032784FE8D
:10020000832744FEE3F8E7FC130000000324C10148
:10021000130101026780000000000000130101FDCE
:100220002326810213040103232EA4FC232CB4FCF7
:100230008327C4FD2326F4FE6F0080018327C4FEBC
:1002400023A007008327C4FE938747002326F4FEDC
:100250000327C4FE832784FDE3F2E7FE13000000BA
:100260000324C102130101036780000000000000A5
:10027000130101FE232E1100232C8100130401021F
:10028000B7D70080938707E62326F4FE8327C4FEB2
:100290002320F4FE232204FE232404FE138601817E
:1002A000B7E70080938507B3B7E70080138507B3EE
:1002B000EFF09FF01386019D9385018113850181E5
:1002C000EFF09FEF938501E1138501DDEFF01FF55E
:1002D000B7E7018093850760138501E1EFF01FF414
:1002E000930704FE9385070013051000EFF05FE706
:1002F000130000008320C1010324810113010102C6
:100300006780000000000000130101FF2326810028
:1003100013040101130000000324C10013010101B3
:100320006780000000000000130101FD2326810208
:1003300013040103232EA4FCF32740F12326F4FE2B
:100340008327C4FE2324F4FE370700408327C4FD1F
:1003500093D75700832684FE93965600B386F60003
:10036000B717000093870780B387F600939727009D
:10037000B307F70083A707002322F4FE8327C4FDF9
:1003800093F7F70113071000B317F70093C7F7FFB0
:10039000032744FEB377F7002322F4FE370700401B
:1003A0008327C4FD93D75700832684FE9396560077
:1003B000B386F600B717000093870780B387F6006F
:1003C00093972700B307F700032744FE23A0E70015
:1003D000130000000324C102130101036780000021
:1003E00000000000130101FE232E8100130401020E
:1003F000F32740F12326F4FE8327C4FE2324F4FED2
:1004000037070040832784FE938707209397C70010
:10041000B307F70083A74700138507000324C10132
:10042000130101026780000000000000130101FDBC
:100430002326810213040103232EA4FCF32740F199
:100440002326F4FE8327C4FE2324F4FE370700404E
:10045000832784FE938707209397C700B307F7008D
:100460000327C4FD23A2E700130000000324C102F8
:10047000130101036780000000000000130101FE6A
:10048000232E810013040102F36704302326F4FEB7
:10049000130000000324C101130101026780000062
:1004A00000000000130101FD232611022324810214
:1004B00013040103232EA4FC130710002326E4FEDB
:1004C0008326C4FD1307400633D7E60293070700CF
:1004D00013080000138701DD2320F7002322070102
:1004E000938701DD83A6070003A7470093870600D3
:1004F000B3E7E70063860708F32740F12324F4FEFF
:10050000832784FE2322F4FE37070044B7C7000088
:10051000B307F70003A8C7FF83A787FF138701DD91
:10052000832507000326470037050044B386B7003C
:1005300093880600B3B8F8003307C800B387E80013
:10054000138707009387060013080700832644FEDD
:1005500037170000130707803387E60013173700AB
:100560003307E5002320F700232207019307000843
:10057000F3A747302320F4FEEFF05FF0232604FEBC
:100580008327C4FE138507008320C1020324810250
:10059000130101036780000000000000130101FE49
:1005A000232E1100232C810013040102930700085D
:1005B000F3B747302326F4FEEF10001D3707004441
:1005C000B7C70000B307F70003A8C7FF83A787FFDB
:1005D000138701DD83250700032647003705004404
:1005E000732740F12324E4FE832884FEB386B700FA
:1005F000138306003333F3003307C800B307E30067
:1006000013870700938706001308070037170000B9
:10061000130707803387E800131737003307E50017
:100620002320F7002322070193070008F3A7473090
:100630002322F4FE130000008320C1010324810162
:10064000130101026780000000000000130101FE99
:10065000232E1100232C810013040102EFF09FD8F8
:100660002326A4FEA30504FEB7E700800327C4FEEB
:1006700013172700938707B4B307F70083A7070072
:10068000E780070093070500A305F4FE0325C4FED9
:10069000EFF0DFD90347B4FE930710006316F700AD
:1006A0000325C4FEEFF05FC8130000008320C101E2
:1006B0000324810113010102678000000000000093
:1006C000130101FF232611002324810013040101DB
:1006D000B707004423A00700EF10005613000000E6
:1006E0008320C10003248100130101016780000001
:1006F00000000000130101FE232E1100232C8100B5
:10070000130401022326A4FE2324B4FE8327C4FE7F
:1007100063D207020327C4FEB707008093C7F7FF21
:100720003377F7009307B0006316F700EFF01FF27E
:100730006F0080078327C4FE63D207020327C4FE2D
:10074000B707008093C7F7FF3377F7009307700070
:100750006316F700EFF09FE46F0000058327C4FEE7
:1007600063D207020327C4FEB707008093C7F7FFD1
:100770003377F700930730006316F700EFF05FF46C
:100780006F00800213065000B7D70080938587E67C
:1007900013051000EFA0C0598327C4FE93871700EC
:1007A00013850700EF00004A832784FE13850700A6
:1007B0008320C1010324810113010102678000002D
:1007C00000000000130101FF232681001304010132
:1007D00093070000138507000324C10013010101E2
:1007E0006780000000000000130101FF2326810044
:1007F0001304010193070000138507000324C100BF
:10080000130101016780000000000000130101FFD7
:1008100023268100130401019307000013850700BC
:100820000324C100130101016780000000000000E3
:10083000130101FF23268100130401019307000027
:10084000138507000324C100130101016780000024
:1008500000000000130101FF2326810013040101A1
:1008600093070000138507000324C1001301010151
:100870006780000000000000130101FF23268100B3
:100880001304010193070000138507000324C1002E
:10089000130101016780000000000000130101FF47
:1008A000232681001304010193070000138507002C
:1008B0000324C10013010101678000000000000053
:1008C000130101FF23268100130401019307000097
:1008D000138507000324C100130101016780000094
:1008E00000000000130101FF232681001304010111
:1008F00093070000138507000324C10013010101C1
:100900006780000000000000130101FF2326810022
:100910001304010193070000138507000324C1009D
:10092000130101016780000000000000130101FFB6
:10093000232681001304010193070000138507009B
:100940000324C100130101016780000000000000C2
:10095000130101FF23268100130401019307000006
:10096000138507000324C100130101016780000003
:1009700000000000130101FF232681001304010180
:1009800093070000138507000324C1001301010130
:100990006780000000000000130101FF2326810092
:1009A0001304010193070000138507000324C1000D
:1009B000130101016780000000000000130101FF26
:1009C000232681001304010193070000138507000B
:1009D0000324C10013010101678000000000000032
:1009E000130101FF23268100130401019307000076
:1009F000138507000324C100130101016780000073
:100A000000000000130101FF2326810013040101EF
:100A100093070000138507000324C100130101019F
:100A20006780000000000000130101FF2326810001
:100A30001304010193070000138507000324C1007C
:100A4000130101016780000000000000130101FF95
:100A5000232681001304010193070000138507007A
:100A60000324C100130101016780000000000000A1
:100A7000130101FF232681001304010193070000E5
:100A8000138507000324C1001301010167800000E2
:100A900000000000130101FF23268100130401015F
:100AA00093070000138507000324C100130101010F
:100AB0006780000000000000130101FF2326810071
:100AC0001304010193070000138507000324C100EC
:100AD000130101016780000000000000130101FF05
:100AE00023268100130401019307000013850700EA
:100AF0000324C10013010101678000000000000011
:100B0000130101FF23268100130401019307000054
:100B1000138507000324C100130101016780000051
:100B200000000000130101FF2326810013040101CE
:100B300093070000138507000324C100130101017E
:100B40006780000000000000130101FF23268100E0
:100B50001304010193070000138507000324C1005B
:100B6000130101016780000000000000130101FF74
:100B70002326810013040101930700001385070059
:100B80000324C10013010101678000000000000080
:100B9000130101FF232681001304010193070000C4
:100BA000138507000324C1001301010167800000C1
:100BB00000000000130101FF23268100130401013E
:100BC00093070000138507000324C10013010101EE
:100BD0006780000000000000130101FF2326810050
:100BE0001304010193070000138507000324C100CB
:100BF000130101016780000000000000130101FFE4
:100C000023268100130401019307000013850700C8
:100C10000324C100130101016780000000000000EF
:100C2000130101FF23268100130401019307000033
:100C3000138507000324C100130101016780000030
:100C400000000000130101FE232E810013040102A5
:100C50002326A4FE6F00000000000000130101FE27
:100C6000232E8100130401022326A4FEB7E700808F
:100C700003A707B38327C4FE3307F700B7E7018054
:100C8000938707606360F702B7E7008003A707B3A5
:100C90008327C4FE3307F700B7E702809387076016
:100CA00063F6E7009307F0FF6F000003B7E70080EB
:100CB00003A707B38327C4FE3307F700B7E7008015
:100CC00023A8E7B2B7E7008003A707B38327C4FED2
:100CD000B307F040B307F700138507000324C101F1
:100CE000130101026780000000000000130101FEF3
:100CF000232E8100130401022326A4FE0327C4FE31
:100D0000930710006308F7000327C4FE9307200031
:100D10006316F700930710006F000001130790009F
:100D200023A8E1E893070000138507000324C1010D
:100D3000130101026780000000000000130101FEA2
:100D4000232E8100130401022326A4FE0327C4FEE0
:100D500023A8E1E89307F0FF138507000324C101EE
:100D6000130101026780000000000000130101FE72
:100D7000232E1100232C8100130401022326A4FE3C
:100D800013059000EFF09FFB930705001385070004
:100D90008320C10103248101130101026780000047
:100DA00000000000130101FE232E1100232C8100FE
:100DB000130401022326A4FE2324B4FE0325C4FE4B
:100DC000EF90907693070500638C0700832784FEDD
:100DD0003727000023A2E700930700006F000001FF
:100DE00013059000EFF09FF59307050013850700AA
:100DF0008320C101032481011301010267800000E7
:100E000000000000130101FE232E1100232C81009D
:100E1000130401022326A4FE2324B4FE2322C4FECD
:100E20000325C4FEEFF09FEC9307050063860700DF
:100E3000930700006F00000113059000EFF01FF012
:100E400093070500138507008320C1010324810156
:100E5000130101026780000000000000130101FE81
:100E6000232E1100232C8100130401022326A4FE4B
:100E70002324B4FE2322C4FE13059000EFF01FECE0
:100E800093070500138507008320C1010324810116
:100E9000130101026780000000000000130101FE41
:100EA000232E1100232C8100130401022326A4FE0B
:100EB0002324B4FE2322C4FE13059000EFF01FE8A4
:100EC00093070500138507008320C10103248101D6
:100ED0001301010267800000000000002320B5001C
:100EE000678000000325050067800000138E060060
:100EF000331EBE00337ECE0003230500930306009D
:100F000093C3F3FF337373003363C301232065007E
:100F100067800000032505003375C5003355B50013
:100F2000678000002310B5006780000003150500EE
:100F300067800000138E0600331EBE00337ECE0095
:100F4000031305009303060093C3F3FF3373730089
:100F50003363C3012310650067800000031505009B
:100F60003375C5003355B500678000002300B50018
:100F7000678000000305050067800000138E0600EF
:100F8000331EBE00337ECE0003030500930306002C
:100F900093C3F3FF337373003363C301230065000E
:100FA00067800000030505003375C5003355B500A3
:100FB00067800000130101FD232611022324810212
:100FC00013040103232EA4FC232CB4FC9307060076
:100FD00013870600231BF4FC93070700A30AF4FC05
:100FE0008327C4FD638A070C034754FD93077000F1
:100FF00063E4E70C035764FDB7270000637EF70A3C
:10100000832784FD13878700835764FD93F7F70FC9
:101010009385070013050700EFF05FF5832784FD34
:101020009386C700034754FD835764FD93D7574009
:1010300093F7877FB367F700938507001385060052
:10104000EFF0DFF28327C4FD032784FD23A0E70030
:101050008327C4FD83A70700938707011385070033
:10106000EFF05FF19307050093F72700A307F4FE65
:101070006F0080038327C4FD83A707009387470081
:1010800013850700EFF01FEF8327C4FD83A7070038
:101090009387070113850700EFF0DFED9307050045
:1010A00093F72700A307F4FE8347F4FEE39407FCBD
:1010B0008327C4FD23820700130000008320C102A0
:1010C0000324810213010103678000000000000077
:1010D000130101FD232611022324810213040103BD
:1010E000232EA4FC232CB4FC232AC4FC8327C4FD98
:1010F00063800708832784FD638C0706832744FDEC
:1011000063880706232604FE6F00C0058327C4FDFD
:1011100083A707009387070113850700EFF09FE57A
:101120009307050093F71700A305F4FE8347B4FE69
:10113000E38E07FC8327C4FD83A60700032784FDF5
:101140008327C4FEB307F70083C707009385070012
:1011500013850600EFF09FE18327C4FE93871700F5
:101160002326F4FE0327C4FE832744FDE360F7FA39
:10117000130000008320C102032481021301010334
:101180006780000000000000130101FD232611020A
:101190002324810213040103232EA4FC232CB4FC7A
:1011A000232AC4FCA30704FE832784FD2324F4FE22
:1011B0008327C4FD032784FD23A0E7008327C4FD04
:1011C000032744FD23A2E700A30704FE832784FD31
:1011D0002324F4FE6F00800293050000032584FEA3
:1011E000EFF0DFD8832784FE938747002324F4FEA3
:1011F0008347F4FE93871700A307F4FE0347F4FE2A
:101200009307F001E3FAE7FC8327C4FD83A74700B7
:1012100013071000638AE7021307100063E4E70670
:10122000130720006384E7006F00000C8327C4FDD0
:1012300083A70700938707089305F0FF138507002E
:10124000EFF0DFC96F00400A8327C4FD83A70700C2
:1012500013870708B70701009385F7FF13050700F9
:10126000EFF05FCC8327C4FD83A7070013874708EF
:10127000B70701009385F7FF13050700EFF09FCA3A
:101280006F0080068327C4FD83A7070093870708A4
:101290009305F00F13850700EFF05FCD8327C4FDA2
:1012A00083A70700938747089305F00F138507006E
:1012B000EFF0DFCB8327C4FD83A707009387870860
:1012C0009305F00F13850700EFF05FCA8327C4FD75
:1012D00083A707009387C7089305F00F13850700BE
:1012E000EFF0DFC813000000130000008320C102EC
:1012F0000324810213010103678000000000000045
:10130000130101FD2326110223248102130401038A
:10131000232EA4FC232CB4FC232AC4FC032784FD25
:101320009307F00163E8E7028327C4FD83A7070062
:101330002326F4FE832784FD939727000327C4FE0A
:10134000B307F7002326F4FE832544FD0325C4FEDE
:10135000EFF0DFB8130000008320C10203248102F4
:10136000130101036780000000000000130101FD6C
:10137000232611022324810213040103232EA4FC3B
:10138000232604FE8327C4FD83A74700130710000C
:10139000638AE7021307100063E2E70813072000DF
:1013A0006384E7006F0080128327C4FD83A70700D2
:1013B0009387070913850700EFF0DFB22326A4FE09
:1013C0006F00C0108327C4FD83A707009387070918
:1013D00013850700EFF09FB59307050013870700FB
:1013E0008327C4FEB3E7E7002326F4FE8327C4FD6A
:1013F00083A707009387470913850700EFF01FB302
:101400009307050093970701138707008327C4FEFE
:10141000B3E7E7002326F4FE6F00400B8327C4FDEB
:1014200083A707009387070913850700EFF09FB490
:1014300093070500138707008327C4FEB3E7E7007F
:101440002326F4FE8327C4FD83A70700938747095B
:1014500013850700EFF01FB29307050093978700ED
:10146000138707008327C4FEB3E7E7002326F4FEB3
:101470008327C4FD83A70700938787091385070087
:10148000EFF05FAF930705009397070113870700FD
:101490008327C4FEB3E7E7002326F4FE8327C4FDB9
:1014A00083A707009387C70913850700EFF09FAC58
:1014B0009307050093978701138707008327C4FECE
:1014C000B3E7E7002326F4FE130000008327C4FEE1
:1014D000138507008320C102032481021301010345
:1014E0006780000000000000130101FD23261102A7
:1014F0002324810213040103232EA4FC232CB4FC17
:1015000093070600A30BF4FC8327C4FD83A74700C1
:1015100013071000638AE7081307100063E0E7145D
:10152000130720006384E7006F00801E8327C4FD3B
:1015300083A707009387070A13850700EFF09F9A98
:101540002326A4FE834774FD63940702130710004B
:10155000832784FDB317F70093C7F7FF13870700AE
:101560008327C4FEB3F7E7002326F4FE6F000002D2
:1015700013071000832784FDB317F70013870700B4
:101580008327C4FEB3E7E7002326F4FE8327C4FDC8
:1015900083A707009387070A8325C4FE13850700E6
:1015A000EFF0DF936F00C0168327C4FD03A7070089
:1015B000832784FD93D7470093972700B307F7004D
:1015C0009387070A2322F4FE032544FEEFF01F96BB
:1015D000930705002315F4FE834774FD6390070409
:1015E000832784FD93F7F70013071000B317F70064
:1015F0009397070193D7074193C7F7FF1397070105
:10160000135707418317A4FEB377F7009397070199
:1016100093D707412315F4FE6F000003832784FD51
:1016200093F7F70013071000B317F700139707019C
:10163000135707418317A4FEB367F7009397070179
:1016400093D707412315F4FE8357A4FE9385070023
:10165000032544FEEFF01F8D6F00800B8327C4FD30
:1016600003A70700832784FD93D7370093972700AC
:10167000B307F7009387070A2320F4FE032504FE2F
:10168000EFF05F8F93070500A304F4FE834774FD1A
:1016900063900704832784FD93F7770013071000F6
:1016A000B317F7009397870193D7874193C7F7FF45
:1016B0001397870113578741830794FEB377F70089
:1016C0009397870193D78741A304F4FE6F0000032B
:1016D000832784FD93F7770013071000B317F700F3
:1016E0001397870113578741830794FEB367F70069
:1016F0009397870193D78741A304F4FE834794FE11
:1017000093850700032504FEEFF05F8613000000B9
:10171000130000008320C10203248102130101038E
:101720006780000000000000130101FE232E11005D
:10173000232C810013040102232604FEB787F20440
:10174000138707AC9307803E3357F70223ACE1DCE5
:1017500083A781DD13850700EF00501883A781DD83
:1017600013850700EFE01FD42326A4FE8327C4FEC1
:10177000138507008320C1010324810113010102A5
:101780006780000000000000130101FF2326110004
:101790002324810013040101EF00100E1300000048
:1017A0008320C10003248100130101016780000030
:1017B00000000000130101FF232681001304010132
:1017C000130000000324C100130101016780000021
:1017D00000000000130101FF2326110023248100D3
:1017E00013040101EF000020EF00800FEF00C001A3
:1017F000130000008320C1000324810013010101B4
:101800006780000000000000130101FF2326110083
:10181000232481001304010113062000B725007062
:10182000138541E9EFF05F96130620009305000051
:10183000138541E9EFF0DFAC13062000930510009B
:10184000138541E9EFF0DFAB13062000930520007C
:10185000138541E9EFF0DFAA13062000930530005D
:10186000138541E9EFF0DFA9130000008320C100D8
:1018700003248100130101016780000000000000C3
:10188000130101FD23261102232481021304010305
:10189000232EA4FC9307F00F2326F4FE138541E9C1
:1018A000EFF0DFAC2326A4FE0327C4FE8327C4FD8C
:1018B000B357F7002326F4FE8327C4FE93F71700DF
:1018C0002326F4FE8327C4FE138507008320C1026C
:1018D000032481021301010367800000000000005F
:1018E000130101FF232611002324810013040101A9
:1018F00013062000B75500701385C1E9EFF0DF88AB
:1019000013065000930500001385C1E9EFF05F9FB7
:1019100013065000930510001385C1E9EFF05F9E98
:1019200013065000930520001385C1E9EFF05F9D79
:1019300013065000930530001385C1E9EFF05F9C5A
:1019400013065000930540001385C1E9EFF05F9B3B
:1019500013065000930550001385C1E9EFF05F9A1C
:1019600013065000930560001385C1E9EFF05F99FD
:1019700013065000930570001385C1E9EFF05F98DE
:10198000130000008320C100032481001301010122
:101990006780000000000000130101FE232E1100EB
:1019A000232C8100130401022326A4FE2324B4FE69
:1019B0008327C4FE032784FE1377F70F130607005F
:1019C000938507001385C1E9EFF01FB213000000F3
:1019D0008320C101032481011301010267800000FB
:1019E00000000000130101FF2326110023248100C1
:1019F00013040101930610001306C002B71500700E
:101A0000138541EAEFF00FDB130000008320C100D3
:101A10000324810013010101678000000000000021
:101A2000130101FE232E1100232C81001304010257
:101A300093070500A307F4FE9307F4FE13061000B6
:101A400093850700138541EAEFF08FE8130000004B
:101A50008320C1010324810113010102678000007A
:101A600000000000130101FB232611022324810240
:101A700013040103232EA4FC2322B4002324C40056
:101A80002326D4002328E400232AF400232C040175
:101A9000232E140193070402938747FE2324F4FEA8
:101AA000832784FE138607008325C4FD138501E187
:101AB000EF90C02E232604FE6F008002138701E101
:101AC0008327C4FEB307F700838707001385070049
:101AD000EFF01FF58327C4FE938717002326F4FE3B
:101AE000138701E18327C4FEB307F700838707004C
:101AF000E39607FC130000008320C1020324810247
:101B000013010105678000000000000093028000BF
:101B100073B0023097D201009382C2831303100086
:101B200023A0620097D201009382428203A3420065
:101B300023A0620097D201009382428103A3020096
:101B40008313430093E30301231273000321030073
:101B50008322C10773901234832001008322010184
:101B600003234101832381010324C1018324010252
:101B700003254102832581020326C1028326010336
:101B800003274103832781030328C103832801041A
:101B90000329410483298104032AC104832A0105FE
:101BA000032B4105832B8105032CC105832C0106E2
:101BB000032D4106832D8106032EC106832E0107C6
:101BC000032F4107832F810713010108F32F1034DE
:101BD0009302800073A0023067800F00B70220409C
:101BE0009382420083A20200678000009302800873
:101BF00073B00230678000007325003093028000CC
:101C000073B00230678000007325003093028000BB
:101C100073A00230678000007310053067800000F9
:101C20009302800073A04230B702004413031000F7
:101C300023A06200678000009302800073B002302E
:101C400097C200009382424D03A302006302030087
:101C500097C201009382826F03A302002320C30076
:101C600097C201009382826E03A3020083034300A4
:101C700093F3F30E2302730097C201009382026D67
:101C800003A3420023A062008313430093E30301F4
:101C900023127300032103008322C10773901234BF
:101CA0008320010083220101032341018323810159
:101CB0000324C101832401020325410283258102FB
:101CC0000326C102832601030327410383278103DF
:101CD0000328C103832801040329410483298104C3
:101CE000032AC104832A0105032B4105832B8105A7
:101CF000032CC105832C0106032D4106832D81068B
:101D0000032EC106832E0107032F4107832F81076E
:101D10001301010873002030130101FF2326110075
:101D20002324810013040101EFF09FEF1300000052
:101D30008320C1000324810013010101678000009A
:101D400000000000130101FE232E1100232C81004E
:101D500013040102EFF05FEA2326A4FEEF4040687F
:101D600093070500138747FCB7E701809387873403
:101D700023A2E700B7E701809387873403A7070012
:101D8000B7E701809387873483A747006300F70292
:101D9000B7E7018083D74734639A07000325C4FE61
:101DA000EFF09FE7EFF0DFE76F00C0000325C4FE10
:101DB000EFF09FE68320C10103248101130101029A
:101DC0006780000000000000130101FF23261100BE
:101DD0002324810013040101EFF05FE16F00000094
:101DE00000000000130101FD2326810213040103FA
:101DF000232EA4FC232CB4FC232AC4FC930710003C
:101E00002326F4FE6F00C0028327C4FE93972700A9
:101E1000032744FDB307F70037D7CACA1307A7AC97
:101E200023A0E7008327C4FE938717002326F4FE30
:101E3000832784FD93D727000327C4FEE366F7FCBE
:101E4000832744FD37D7CCCC1307C7CC23A0E700AA
:101E5000032744FD832784FDB307F700938707F822
:101E60002324F4FEB7270080138787DC832784FEB2
:101E700023A0E700832784FE3707020213072720E9
:101E800023A2E700832784FE3707030313073730B5
:101E900023A4E700832784FE370704041307474081
:101EA00023A6E700832784FE37571405130757142A
:101EB00023A8E700832784FE370706061307676019
:101EC00023AAE700832784FE3707070713077770E5
:101ED00023ACE700832784FE3717080813078780A1
:101EE00023AEE700832784FE37170909130797906D
:101EF00023A0E702832784FE0327C4FD23A2E70271
:101F0000832784FE371711111307171123A4E70243
:101F1000832784FE371712121307272123A6E7020F
:101F2000832784FE371713131307373123A8E702DB
:101F3000832784FE371714141307474123AAE702A7
:101F4000832784FE371715151307575123ACE70273
:101F5000832784FE371716161307676123AEE7023F
:101F6000832784FE371717171307777123A0E70419
:101F7000832784FE372718181307878123A2E704D5
:101F8000832784FE372719191307979123A4E704A1
:101F9000832784FE372720201307070223A6E704A0
:101FA000832784FE372721211307171223A8E7046C
:101FB000832784FE372722221307272223AAE70438
:101FC000832784FE372723231307373223ACE70404
:101FD000832784FE372724241307474223AEE704D0
:101FE000832784FE372725251307575223A0E706AA
:101FF000832784FE372726261307676223A2E70676
:10200000832784FE372727271307777223A4E70641
:10201000832784FE373728281307878223A6E706FD
:10202000832784FE373729291307979223A8E706C9
:10203000832784FE373730301307070323AAE706C8
:10204000832784FE373731311307171323ACE70694
:10205000B7870080138707D2832784FE23AEE70665
:10206000832784FE138507000324C10213010103A3
:102070006780000000000000130101FE232E110004
:10208000232C810013040102EFF01FB72326A4FEC6
:1020900083A7C1DD1387170023AEE1DC0325C4FE4F
:1020A000EFF09FB7EF605048EFF01FB52326A4FE76
:1020B00083A7C1DD1387F7FF23AEE1DC0325C4FE50
:1020C000EFF09FB5130000008320C10103248101BC
:1020D000130101026780000000000000130101FEEF
:1020E000232E8100130401022326A4FE0327C4FE2D
:1020F00023A6E1EA130000000324C1011301010239
:102100006780000000000000130101FE232E110073
:10211000232C810013040102EFF05FAC2326A4FE00
:102120008327C4FE138507008320C1010324810196
:10213000130101026780000000000000130101FE8E
:10214000232E1100232C810013040102EFF0DFFB8A
:102150002326A4FE6F00000000000000130101FE12
:10216000232E1100232C8100130401029307000188
:102170002326F4FE6F000003B7E700800327C4FEA8
:1021800013172700938707D0B307F700372700807E
:102190001307C71323A0E7008327C4FE9387170004
:1021A0002326F4FE0327C4FE9307F00FE3F6E7FCB3
:1021B000EFF04FE0130000008320C10103248101F0
:1021C000130101026780000000000000130101FFFD
:1021D0002326810013040101B7E7018013070001E2
:1021E00023A0E734B7E700801387471EB707010035
:1021F0003307F70023A0E1DE130000000324C10031
:10220000130101016780000000000000130101FEBE
:10221000232E1100232C810013040102EFF0CFD0F4
:102220002326A4FE8327C4FE638607008327C4FEFB
:102230006F0080008327C4FE138507008320C1013F
:1022400003248101130101026780000000000000E7
:10225000130101FE232E1100232C8100130401021F
:10226000232604FEEFF09F8A8327C4FE1385070010
:102270008320C10103248101130101026780000052
:1022800000000000130101FE232E1100232C810009
:1022900013040102EFF09FF3EF00006A2326A4FE6F
:1022A0008327C4FE638607008327C4FE6F00C00A2D
:1022B000B7E7008083C747B363840700EFF01FEAE6
:1022C000EF5000532326A4FE8327C4FE6386070035
:1022D0008327C4FE6F004008EF30007D2326A4FE54
:1022E0008327C4FE638607008327C4FE6F00C006F1
:1022F000EF20C00F2326A4FE8327C4FE63860700B9
:102300008327C4FE6F004005EF2010262326A4FE7D
:102310008327C4FE638607008327C4FE6F00C003C3
:10232000EF40C02E2326A4FE8327C4FE6386070049
:102330008327C4FE6F004002EF60D026EF5000708C
:102340002326A4FE8327C4FE638607008327C4FEDA
:102350006F00800093070000138507008320C101F0
:1023600003248101130101026780000000000000C6
:10237000130101FE232E1100232C810013040102FE
:10238000EFF05FF0930705002326F4FE8327C4FED9
:1023900063860700930710006F008000930700001A
:1023A000138507008320C101032481011301010269
:1023B0006780000000000000130101FE232E810051
:1023C000130401022326A4FE2324B4FE0327C4FE23
:1023D000832784FEB307F7009387F7FF0327C4FE24
:1023E0006372F7020327C4FE832784FEB307F70056
:1023F0001387F7FF832784FEB307F040B377F70016
:102400006F004001832784FE3307F0408327C4FE1A
:10241000B377F700138507000324C10113010102FC
:102420006780000000000000130101FD23268102E7
:1024300013040103232EA4FC232CB4FC8327C4FD26
:1024400083A7070063960700930710006F004007FB
:10245000832784FD0327C4FD1307C700B387E74024
:102460002326F4FE8327C4FD83A707000327C4FEA9
:10247000B377F70263860700930710006F004004EC
:102480008327C4FD83A707000327C4FE3357F70241
:102490008327C4FD83A747006366F70093071000F6
:1024A0006F000002832784FD03A70700B7A7A55A82
:1024B0009387B755B307F700B337F00093F7F70FDB
:1024C000138507000324C102130101036780000084
:1024D00000000000130101FD2326110223248102C4
:1024E00013040103232EA4FC232CB4FC232AC4FCD4
:1024F0008327C4FD2322F4FE232604FE8327C4FD84
:1025000063960700930710006F00400F832744FD78
:1025100063960700930710006F00400E032784FDA9
:102520009307B00063E6E700930710006F00000D0B
:10253000EFF08FEC2320A4FE832744FD93877700E0
:1025400013F7C7FF832744FE23A0E700832784FDFA
:10255000138747FF832744FE83A707003357F702FB
:10256000832744FE23A2E700832744FE83A7470076
:10257000639A0700032504FEEFF00FEA93071000AB
:102580006F00C007832744FE9387C7002326F4FE0D
:10259000832744FE0327C4FE23A4E700232404FE6C
:1025A0006F004003832744FE83A707000327C4FE70
:1025B0003307F7008327C4FE23A0E7008327C4FE68
:1025C00083A707002326F4FE832784FE9387170042
:1025D0002324F4FE832744FE83A747009387F7FF55
:1025E000032784FEE360F7FC8327C4FE23A00700D3
:1025F000032504FEEFF04FE2930700001385070068
:102600008320C102032481021301010367800000BB
:1026100000000000130101FD232611022324810282
:1026200013040103232EA4FC8327C4FD2324F4FEFA
:10263000232204FE232604FE8327C4FD639607009D
:10264000930700006F000007EFF00FDB2320A4FECC
:10265000832784FE938787002322F4FE832744FE8A
:1026600083A7070063880702832744FE83A7070028
:102670002326F4FE8327C4FE03A70700832744FE16
:1026800023A0E7008327C4FE37675AA5130757AA7C
:1026900023A0E700032504FEEFF00FD88327C4FE34
:1026A000638807008327C4FE938747006F0080007C
:1026B00093070000138507008320C10203248102D1
:1026C000130101036780000000000000130101FDF9
:1026D000232611022324810213040103232EA4FCC8
:1026E000232CB4FC8327C4FD2324F4FE930710009D
:1026F0002326F4FE8327C4FD63860700832784FD19
:1027000063960700930710006F000006EFF0CFCE2E
:102710002322A4FE832784FD9387C7FF2320F4FE92
:10272000832504FE032584FEEFF01FD093070500E8
:1027300063940702832784FE03A78700832704FE90
:1027400023A0E700832784FE032704FE23A4E700D9
:10275000232604FE6F00800013000000032544FEC2
:10276000EFF08FCB8327C4FE138507008320C102BF
:1027700003248102130101036780000000000000B0
:10278000130101FD232611022324810213040103F6
:10279000232EA4FC232CB4FC8327C4FD2326F4FEA3
:1027A0008327C4FD63860702832784FD63820702B3
:1027B0008327C4FE83A707009387C7FF13860700FC
:1027C00093050000032584FDEF8040406F008000EA
:1027D000130000008320C1020324810213010103BE
:1027E0006780000000000000130101FE232E81001D
:1027F000130401022326A4FE2324B4FE8327C4FE6F
:1028000003A74700832784FE23A2E700832784FED3
:102810000327C4FE23A0E7008327C4FE83A7470045
:10282000032784FE23A0E7008327C4FE032784FE3A
:1028300023A2E700130000000324C10113010102D9
:102840006780000000000000130101FE232E11002C
:10285000232C8100130401022326A4FE2324B4FEAA
:102860008327C4FE83A70700832584FE1385070002
:10287000EFF09FF7130000008320C10103248101C2
:10288000130101026780000000000000130101FE37
:10289000232E8100130401022326A4FE8327C4FEF5
:1028A00083A747000327C4FE0327070023A0E700F0
:1028B0008327C4FE83A707000327C4FE032747001E
:1028C00023A2E7008327C4FE23A207008327C4FEB8
:1028D00023A00700130000000324C101130101021B
:1028E0006780000000000000130101FD2326810223
:1028F00013040103232EA4FC232CB4FC8327C4FD62
:102900002326F4FE8327C4FE9387070D032784FD47
:102910006308F700832784FD938787006F0080009A
:1029200093070000138507000324C102130101036C
:102930006780000000000000130101FE232E11003B
:10294000232C81001304010237E700801307471E80
:1029500023A8E1EA83A701EBB7050100138507006F
:10296000EF00007E2326A4FE8327C4FE1385070004
:102970008320C1010324810113010102678000004B
:1029800000000000130101FD23261102232481020F
:1029900013040103232EA4FC232CB4FC232604FEE1
:1029A0008327C4FD93878700832584FD1385070053
:1029B000EF1040042326A4FE6F000006232404FE2B
:1029C0008327C4FE83A747002324F4FE6F00800200
:1029D000832784FE83A7C700032784FD63E6E700FF
:1029E000832784FE6F000004832784FE83A74700AB
:1029F0002324F4FE832784FE0327C4FEE31AF7FC96
:102A00008327C4FD938787008325C4FE13850700B1
:102A1000EFF09FED2326A4FE8327C4FEE39007FA80
:102A200093070000138507008320C102032481025D
:102A3000130101036780000000000000130101FE84
:102A4000232E8100130401022326A4FE8327C4FE43
:102A500023A007008327C4FE23A207008327C4FE08
:102A600023A40700130000000324C1011301010285
:102A70006780000000000000130101FD2326110201
:102A80002324810213040103232EA4FC232604FE25
:102A90008327C4FD83A7870083A6C7008327C4FDBF
:102AA00003A7C7008327C4FD83A787003387E600F9
:102AB00023A6E7008327C4FD03A7C7008327C4FD1F
:102AC000B307F7002326F4FE8327C4FD03A787007E
:102AD0008327C4FE23A4E7000325C4FDEFF01FF6FF
:102AE000130000008320C1020324810213010103AB
:102AF0006780000000000000130101FD2326110281
:102B00002324810213040103232EA4FC232CB4FCF0
:102B1000232AC4FC232604FE232404FE232204FECD
:102B2000032784FD832744FDB307F7002326F4FE23
:102B30008327C4FE032784FD23A4E700832784FDA5
:102B400003A7C700832744FD3307F7408327C4FE4C
:102B500023A6E700832784FD032744FD23A6E7007F
:102B60008327C4FE03A7C700B707008093C7F7FFFA
:102B7000B377F7000327C4FEB307F7002324F4FE5E
:102B8000832784FE0327C4FE23A4E700832784FE53
:102B900083A7C70063CC0700832784FE1385070043
:102BA000EFF0DFCE032584FEEFF01FED8327C4FD99
:102BB00093878700138707008327C4FE83A7C70076
:102BC0009385070013050700EF00D0622322A4FEBF
:102BD000832744FE638C07008327C4FE9385070088
:102BE000032544FEEFF05FC06F008000130000007B
:102BF0008320C102032481021301010367800000C6
:102C000000000000130101FD23261102232481028C
:102C100013040103232EA4FC232CB4FC232604FE5E
:102C2000232404FE8327C4FD03A7C700B707008041
:102C300093C7F7FFB377F70013850700EF0050182D
:102C40008327C4FD03A7C700B707008093C7F7FF1A
:102C50003377F7008327C4FD23A6E7008327C4FD4D
:102C600083A78700638A070A8327C4FD83A7870099
:102C700083A7C70063C2070A8327C4FD83A7870011
:102C80002322F4FE0325C4FDEFF01FDF832744FE5B
:102C900003A7C700B707008093C7F7FFB377F70014
:102CA000032744FEB307F7002326F4FE8327C4FE60
:102CB00083A7C70063CC07008327C4FE13850700E2
:102CC000EFF0DFBC0325C4FEEFF01FDB832744FEDB
:102CD00013850700EFF09FBB832784FD9387870050
:102CE00013870700832744FE83A7C7009385070047
:102CF00013050700EF0010502324A4FE832784FE51
:102D0000638C0708832744FE93850700032584FE10
:102D1000EFF09FAD6F0000098327C4FD03A7C70034
:102D2000B707008093C7F7FFB377F7000327C4FD09
:102D3000B307F7002326F4FE8327C4FE83A7C7004A
:102D400063CC07008327C4FE13850700EFF01FB490
:102D50000325C4FEEFF05FD2832784FD93878700AD
:102D6000138707008327C4FD83A7C7009385070047
:102D700013050700EF0010482324A4FE832784FED8
:102D8000638007028327C4FD93850700032584FE23
:102D9000EFF09FA56F000001130000006F0080009E
:102DA000130000008320C1020324810213010103E8
:102DB0006780000000000000130101FD232681024E
:102DC000130401032326A4FE2324B4FE2322C4FEFD
:102DD0002320D4FE232EE4FC032784FE8327C4FE95
:102DE00063E8E7000327C4FE832744FE63F6E70099
:102DF000930700006F0080068327C4FE83A7C700E7
:102E000063D807028327C4FE83A707001387070040
:102E10008327C4FE3347F7009307F0FF6306F700EC
:102E2000930700006F008003930710006F000003FA
:102E30008327C4FE83A70700032704FE63EAE70095
:102E40008327C4FE83A707000327C4FD63E6E700CA
:102E5000930700006F0080009307100013850700A0
:102E60000324C10213010103678000000000000079
:102E7000130101FC232E1102232C810213040104EF
:102E80002326A4FC2324B4FC8327C4FC2326F4FEBD
:102E90008327C4FC9387070E2324F4FE8327C4FEF4
:102EA00083A74700938707FF0327C4FCB307F700F6
:102EB0002322F4FE8327C4FE83A747000327C4FC14
:102EC000B307F7002320F4FE232E04FC032704FE9F
:102ED0008326C4FC032644FE832584FE032584FC4C
:102EE000EFF09FED9307050063960700930710002E
:102EF0006F00C00E832784FC83A7C70063C607004A
:102F0000930710006F00800D832784FC03A7C70080
:102F1000B707008093C7F7FFB377F700032784FC58
:102F2000B307F700232EF4FC032704FE8326C4FC1A
:102F3000032644FE832584FE0325C4FDEFF0DFE76E
:102F40009307050063960700930710006F000009C0
:102F50008327C4FD83A78700032784FC6306F7004B
:102F6000930710006F008007032784FC832784FEEB
:102F70006304F706832784FC83A78700032704FEE6
:102F80008326C4FC032644FE832584FE13850700A4
:102F9000EFF09FE293070500639607009307100088
:102FA0006F00C003832784FC03A78700832784FC6A
:102FB00083A7870083A6C700B707008093C7F7FFE2
:102FC000B3F7F600B307F700032784FC6306F700A6
:102FD000930710006F00800093070000138507001F
:102FE0008320C103032481031301010467800000CF
:102FF00000000000130101FE232E810013040102D2
:103000002326A4FE8327C4FE93C7F7FF1387070078
:103010008327C4FE23A0E700B7E7018093878734A6
:1030200083A7070063820702B7E70180938787348D
:1030300083A7070083A70701138707008327C4FE20
:1030400023A2E7006F0000018327C4FE1307F0FFEF
:1030500023A2E700130000000324C10113010102B1
:103060006780000000000000130101FD232611020B
:103070002324810213040103232EA4FC232CB4FC7B
:10308000232604FE832784FD9387370193F7C7FF28
:103090002324F4FE832584FE0325C4FDEFF09F8ED8
:1030A0002326A4FE8327C4FE63960700930700002F
:1030B0006F008007832784FE138747018327C4FEA0
:1030C00083A7C70063EAE700032684FE8325C4FEC6
:1030D0000325C4FDEFF05FA28327C4FE138507001C
:1030E000EFF0CFFA0325C4FEEFF0DFF08327C4FE34
:1030F00003A7C700B70700803367F7008327C4FE24
:1031000023A6E7008327C4FE03A7C700B7070080F4
:1031100093C7F7FFB377F70013850700EF00C03FB1
:103120008327C4FE93870701138507008320C1020C
:1031300003248102130101036780000000000000E6
:10314000130101FC232E1102232C8102130401041C
:103150002326A4FC2324B4FC232604FE232404FEFB
:10316000232204FE232004FE8327C4FC6388070077
:10317000032784FC9307F00F63E6E7009307F0FF53
:103180006F004012EFE05FA7232EA4FC8327C4FC4E
:103190002322F4FE832744FE0327C4FC23A0E70078
:1031A000832744FE032784FC23A2E7008327C4FC73
:1031B0009387870013850700EF00C07C8327C4FC3A
:1031C0009387070E2326F4FE0327C4FC8327C4FE3F
:1031D0003307F740832784FCB307F700138707FF03
:1031E0008327C4FE23A6E7008327C4FE23A4070089
:1031F0008327C4FC93878700138707008327C4FEB7
:1032000083A7C7009385070013050700EF00807EA2
:103210002320A4FE832704FE639A07000325C4FD30
:10322000EFE09F9F9307F0FF6F00C0078327C4FE66
:1032300093850700032504FEEFF00FE1832784FC4C
:10324000938707FF0327C4FCB307F7002324F4FE8A
:103250001306000193050000032584FEEF7010178C
:10326000832784FE0327C4FE23A4E700832784FE6C
:103270001307000123A6E700832784FE03A7C700E6
:10328000B70700803367F700832784FE23A6E70093
:10329000032584FEEFF01FD60325C4FDEFE0DF9782
:1032A00093070000138507008320C10303248103D3
:1032B000130101046780000000000000130101FDFC
:1032C000232611022324810213040103232EA4FCCC
:1032D000232CB4FC232604FEEFE01F922324A4FE3B
:1032E0008327C4FD63860702832784FD6382070268
:1032F000832784FD63CC0700832584FD0325C4FD5B
:10330000EFF09FD62326A4FE6F008000130000007C
:10331000032584FEEFE05F908327C4FE138507003A
:103320008320C1020324810213010103678000008E
:1033300000000000130101FC232E1102232C810246
:10334000130401042326A4FC2324B4FC2322C4FC7C
:10335000232404FE232204FE232604FE232004FE4D
:10336000EFE09F89232EA4FC8327C4FC6388070A0F
:10337000832784FC6384070A032784FC832744FC97
:10338000B307F700938747002324F4FE832784FEC6
:1033900063C00708832584FE0325C4FCEFF0DFCC5F
:1033A0002326A4FE0327C4FE832744FCB307F700AB
:1033B0001387F7FF832744FCB307F040B377F70088
:1033C0002320F4FE0327C4FE832704FE6306F704CC
:1033D000032704FE8327C4FEB307F7402322F4FE2D
:1033E000032744FEB7070040B367F7002322F4FE2B
:1033F000832704FE9387C7FF13870700832744FEB4
:103400002320F700832704FE2326F4FE6F0000012B
:10341000130000006F008000130000000325C4FDAE
:10342000EFE08FFF8327C4FE138507008320C103CD
:1034300003248103130101046780000000000000E1
:10344000130101FD23261102232481021304010329
:10345000232EA4FC232CB4FC930710002326F4FE97
:10346000232404FEEFE04FF92322A4FE232004FED0
:103470008327C4FD63800708832784FD638C0706C8
:10348000832784FD9387C7FF83A707002324F4FEC7
:10349000032784FEB7070040B377F7006384070271
:1034A000032784FEB70700C09387F7FFB377F700C1
:1034B0002324F4FE032784FD832784FEB307F7400B
:1034C000232CF4FC832784FD938707FF2320F4FE3D
:1034D000832504FE0325C4FDEFF09F992326A4FE57
:1034E0008327C4FE639807008325C4FD032504FEDB
:1034F000EFF04FF1032544FEEFE00FF28327C4FE07
:10350000138507008320C1020324810213010103F4
:103510006780000000000000130101FD23268102E6
:1035200013040103232EA4FCB7E70180938787349B
:1035300083A707006384070683A7C1DD639407069A
:10354000B7E701809387873483A7070083A7070124
:103550002326F4FE0327C4FE9307F00063E8E70484
:10356000B7E701800327C4FE131727009387471E80
:10357000B307F70003A707008327C4FD3307F7004D
:10358000B7E701808326C4FE939626009387471EE3
:10359000B387F60023A0E7006F008001130000004E
:1035A0006F000001130000006F0080001300000096
:1035B0000324C10213010103678000000000000022
:1035C000130101FD2326810213040103232EA4FC11
:1035D000B7E701809387873483A7070083A7070194
:1035E0002326F4FE0327C4FE9307F00063E4E704F8
:1035F00083A7C1DD63940704B7E701800327C4FEF6
:10360000131727009387471EB307F70003A7070088
:103610008327C4FD3307F740B7E701808326C4FE44
:10362000939626009387471EB387F60023A0E700F2
:103630006F000001130000006F0080001300000005
:103640000324C10213010103678000000000000091
:10365000130101FE232E8100130401022326A4FE80
:103660008327C4FE0327C4FE23A2E7008327C4FEEA
:103670000327C4FE23A0E700130000000324C101B8
:10368000130101026780000000000000130101FE29
:10369000232E8100130401022326A4FE8327C4FEE7
:1036A00063D80700B70700109387F7FF6F00402C1F
:1036B0000327C4FEB707FF7FB377F700638E0714B5
:1036C0000327C4FEB707007FB377F700638E0708B0
:1036D0000327C4FEB7070070B377F700638E0702B5
:1036E0000327C4FEB7070040B377F70063860700DF
:1036F0009307E0016F00C0270327C4FEB70700202F
:10370000B377F700638607009307D0016F00402668
:103710009307C0016F00C0250327C4FEB707000C44
:10372000B377F700638207020327C4FEB7070008D8
:10373000B377F700638607009307B0016F0040235B
:103740009307A0016F00C0220327C4FEB707000241
:10375000B377F70063860700930790016F0040215D
:10376000930780016F00C0200327C4FEB707F00055
:10377000B377F700638A07040327C4FEB707C000C6
:10378000B377F700638207020327C4FEB707800000
:10379000B377F70063860700930770016F00401D41
:1037A000930760016F00C01C0327C4FEB707200009
:1037B000B377F70063860700930750016F00401B43
:1037C000930740016F00C01A0327C4FEB7070C001F
:1037D000B377F700638207020327C4FEB707080028
:1037E000B377F70063860700930730016F00401836
:1037F000930720016F00C0170327C4FEB70702001C
:10380000B377F70063860700930710016F00401637
:10381000930700016F00C0150327C4FEB70701001E
:10382000938707F0B377F700638C070A0327C4FE7A
:10383000B7F70000B377F700638A07040327C4FED5
:10384000B7C70000B377F700638207020327C4FEFF
:10385000B7870000B377F700638607009307F0008F
:103860006F0000119307E0006F0080100327C4FE73
:10387000B7270000B377F700638607009307D000EF
:103880006F00000F9307C0006F00800E0327C4FE77
:10389000B7170000938707C0B377F7006384070268
:1038A0000327C4FEB717000093870780B377F7009C
:1038B000638607009307B0006F00800B9307A0009A
:1038C0006F00000B8327C4FE93F707206386070071
:1038D000930790006F00C009930780006F004009B4
:1038E0008327C4FE93F7070F638407048327C4FE6E
:1038F00093F7070C638007028327C4FE93F707083A
:1039000063860700930770006F00800693076000CE
:103910006F0000068327C4FE93F707026386070043
:10392000930750006F00C004930740006F004004ED
:103930008327C4FE93F7C700638007028327C4FE72
:1039400093F7870063860700930730006F004002FB
:10395000930720006F00C0018327C4FE93F7270060
:1039600063860700930710006F0080009307000034
:10397000138507000324C1011301010267800000C1
:1039800000000000130101FD2326110223248102FF
:1039900013040103232EA4FC8327C4FD2322F4FE79
:1039A000832744FE2326F4FE232404FE6F004002F6
:1039B0000325C4FEEFF0DFC9832784FE9387170039
:1039C0002324F4FE8327C4FE938787002326F4FE76
:1039D000032784FE9307A001E3FCE7FC130000002B
:1039E0008320C102032481021301010367800000C8
:1039F00000000000130101FD23261102232481028F
:103A000013040103232EA4FC232CB4FC8327C4FD40
:103A10002324F4FE032584FDEFF05FC72326A4FED4
:103A20000327C4FE9307E00163F6E7009307000055
:103A30006F0040030327C4FE9307400063E6E700DE
:103A4000930740002326F4FE032784FE8326C4FE4A
:103A5000B70700209387C7FFB387F6009397370017
:103A6000B307F700138507008320C10203248102F6
:103A7000130101036780000000000000130101FE34
:103A8000232E8100130401022326A4FE8327C4FEF3
:103A90000327C4FE23A2E7008327C4FE0327C4FE36
:103AA00023A0E700130000000324C1011301010259
:103AB0006780000000000000130101FE232E81003A
:103AC000130401022326A4FE2324B4FE8327C4FE8C
:103AD00003A74700832784FE23A2E700832784FEF1
:103AE0000327C4FE23A0E7008327C4FE83A7470063
:103AF000032784FE23A0E7008327C4FE032784FE58
:103B000023A2E700130000000324C10113010102F6
:103B10006780000000000000130101FE232E110049
:103B2000232C8100130401022326A4FE2324B4FEC7
:103B30008327C4FE83A70700832584FE138507001F
:103B4000EFF09FF7130000008320C10103248101DF
:103B5000130101026780000000000000130101FE54
:103B6000232E8100130401022326A4FE8327C4FE12
:103B700083A747000327C4FE0327070023A0E7000D
:103B80008327C4FE83A707000327C4FE032747003B
:103B900023A2E7008327C4FE23A207008327C4FED5
:103BA00023A00700130000000324C1011301010238
:103BB0006780000000000000130101FE232E810039
:103BC000130401022326A4FE8327C4FE83A7470013
:103BD0000327C4FEB307F74093B7170093F7F70F17
:103BE000138507000324C10113010102678000004F
:103BF00000000000130101FE232E1100232C810080
:103C0000130401022326A4FE8327C4FE6398070041
:103C1000B7270002938767C06F0000028327C4FEA6
:103C200023A007008327C4FE93874700138507005E
:103C3000EFF0DFE493070000138507008320C10144
:103C400003248101130101026780000000000000CD
:103C5000130101FD23261102232481021304010311
:103C6000232EA4FC232CB4FC232AC4FC232604FE0C
:103C7000EFD09FF82324A4FE832744FD93F7270069
:103C8000638807028327C4FD03A70700832784FDF9
:103C9000B377F700638807048327C4FD83A7070071
:103CA000032784FDB377F7002326F4FE6F0080031B
:103CB000832784FD638807028327C4FD03A70700C9
:103CC000832784FDB377F700032784FD631CF70087
:103CD0008327C4FD83A70700032784FDB377F7007C
:103CE0002326F4FE8327C4FE63860702832744FD50
:103CF00093F71700638007028327C4FD03A707001B
:103D00008327C4FE93C7F7FF3377F7008327C4FDEB
:103D100023A0E700032584FEEFD01FF08327C4FE15
:103D2000138507008320C1020324810213010103CC
:103D30006780000000000000130101FD232611022E
:103D40002324810213040103232EA4FC232CB4FC9E
:103D5000232AC4FC2328D4FC232604FE8327C4FD85
:103D600063980700B7270002938767C06F0080261B
:103D7000832784FD63980700B7270002938727C035
:103D80006F004025032784FDB7070002B377F700D3
:103D900063880700B7270002938707C06F0080235E
:103DA000832744FD93F7270063880700832744FD9A
:103DB00093F74700639E0700832744FD93F787FF2F
:103DC00063980700832744FD93F767006398070013
:103DD000B7270002938747C06F00C01F83A7C1DDCC
:103DE00063880700B7270002938737C06F00801EE3
:103DF000EFD09FE02324A4FE8327C4FD032644FDC7
:103E0000832584FD13850700EFF09FE42326A4FE9D
:103E10008327C4FE639A071A832704FD639A070069
:103E2000032584FEEFD05FDF8327C4FE6F00801A76
:103E3000B7E7018083D74734638C0700032584FEEE
:103E4000EFD09FDDB7270002938757C06F0080181F
:103E5000B7E701809387873483A707002322F4FE06
:103E6000832744FE9387C70313850700EF20005480
:103E7000832744FE83D7470093F7B7FF13970701C3
:103E800013570701832744FE2392E700832744FE4C
:103E90009387C7032320F4FE832744FE83D747007C
:103EA00093E787001397070113570701832744FE01
:103EB0002392E700832744FE032784FD23AEE70413
:103EC000832744FE032744FD23A0E7068327C4FD80
:103ED00093874700832504FE13850700EFF0DFC3B7
:103EE000832704FD63840704032704FD9307F0FF81
:103EF000630EF702832744FE83D7470093E7070446
:103F00001397070113570701832744FE2392E70005
:103F1000832504FD032544FEEF308037032584FE0E
:103F2000EFD09FCFEFD01FE26F00C002832744FE87
:103F300083D7470093F7F7FB139707011357070140
:103F4000832744FE2392E700032584FEEFD0DFCCD5
:103F5000EFD05FDF832744FE83D7470093F7070442
:103F6000638E0702EFD05FC92324A4FE832744FE9B
:103F700083D7470093F7F7FB139707011357070100
:103F8000832744FE2392E700032584FEEFD0DFC899
:103F9000B7270002938717C06F00C003EFD0DFC5BB
:103FA0002324A4FE8327C4FD032644FD832584FD2A
:103FB00013850700EFF0DFC92326A4FE032584FE46
:103FC000EFD09FC56F00C000032584FEEFD0DFC493
:103FD0008327C4FE138507008320C10203248102C6
:103FE000130101036780000000000000130101FDC0
:103FF000232611022324810213040103232EA4FC8F
:10400000232CB4FC232204FEA30504FE8327C4FD55
:1040100063980700B7270002938767C06F00001DF1
:10402000032784FDB7070002B377F7006388070012
:10403000B7270002938707C06F00401BEFD0DFBB9C
:104040002320A4FE8327C4FD03A70700832784FD44
:104050003367F7008327C4FD23A0E7008327C4FD4F
:104060009387470013850700EFF01FB593070500FE
:10407000639807168327C4FD83A78700938747FCAF
:104080002326F4FE6F0000128327C4FE83A70704D3
:10409000938747FC2322F4FE8327C4FE83A70706E9
:1040A00093F72700638C07008327C4FE03A7C70587
:1040B000832784FDB377F700639A07028327C4FE42
:1040C00083A7070693F74700638A070C8327C4FE7C
:1040D00003A7C7058327C4FD83A707003377F7002D
:1040E0008327C4FE83A7C705631AF70A9307100046
:1040F000A305F4FE8327C4FE9387C7031385070037
:10410000EFF0DFA58327C4FE83D7470093F777FF3F
:1041100013970701135707018327C4FE2392E70073
:104120008327C4FE83D7470093F7070463840702FD
:104130000325C4FEEF30C0378327C4FE83D7470072
:1041400093F7F7FB13970701135707018327C4FE63
:104150002392E7008327C4FE83D7470093F7270005
:10416000639E07028327C4FE83D7470093E7470077
:1041700013970701135707018327C4FE2392E70013
:104180008327C4FE1387C7038327C4FE83D7670032
:104190009385070013050700EF20401C832744FE8A
:1041A0002326F4FE8327C4FE1387C7038327C4FD99
:1041B00093874700E31AF7EC0347B4FE9307100018
:1041C000631AF700032504FEEFD01FA5EFD09FB7B9
:1041D0006F008001032504FEEFD01FA46F00C00014
:1041E000032504FEEFD05FA39307000013850700AB
:1041F0008320C102032481021301010367800000B0
:1042000000000000130101FD232611022324810276
:1042100013040103232EA4FC232CB4FC8327C4FD28
:1042200063980700B7270002938767C06F000003F9
:10423000EFD09F9C2326A4FE8327C4FD03A707007D
:10424000832784FD3377F7008327C4FD23A0E7008D
:104250000325C4FEEFD05F9C930700001385070081
:104260008320C1020324810213010103678000003F
:1042700000000000130101FE232E8100130401023F
:104280002326A4FE8327C4FE0327C4FE23A2E7003F
:104290008327C4FE0327C4FE23A0E7001300000009
:1042A0000324C10113010102678000000000000027
:1042B000130101FE232E8100130401022326A4FE14
:1042C0002324B4FE8327C4FE03A74700832784FE6C
:1042D00023A2E700832784FE0327C4FE23A0E70070
:1042E0008327C4FE83A74700032784FE23A0E7009B
:1042F0008327C4FE032784FE23A2E70013000000E7
:104300000324C101130101026780000000000000C6
:10431000130101FE232E1100232C8100130401023E
:104320002326A4FE2324B4FE8327C4FE83A707000C
:10433000832584FE13850700EFF09FF7130000002C
:104340008320C10103248101130101026780000061
:1043500000000000130101FE232E8100130401025E
:104360002326A4FE8327C4FE83A747000327C4FE99
:104370000327070023A0E7008327C4FE83A70700C5
:104380000327C4FE0327470023A2E7008327C4FEB8
:1043900023A207008327C4FE23A007001300000008
:1043A0000324C10113010102678000000000000026
:1043B000130101FE232E8100130401022326A4FE13
:1043C0008327C4FE83A747000327C4FEB307F74033
:1043D00093B7170093F7F70F138507000324C10164
:1043E000130101026780000000000000130101FEBC
:1043F000232E1100232C810013040102B7E7018052
:1044000013858722EFF01FE783A701EB9305000FC9
:1044100013850700EFE09FEA13070500B7E7018067
:1044200023A2E722B7E7018083A74722639807000A
:10443000B7270002938707D06F008007232604FE6A
:104440006F000006B7E7018083A647220327C4FE5A
:104450009307070093971700B387E70093973700F8
:10446000B387F6002324F4FE832784FE0327C4FECB
:1044700023A2E700832784FE23800700832784FE8E
:104480009387870093850700B7E70180138587220C
:10449000EFF01FE88327C4FE938717002326F4FE5E
:1044A0000327C4FE93079000E3FEE7F8930700009C
:1044B000138507008320C101032481011301010238
:1044C0006780000000000000130101FD2326110297
:1044D0002324810213040103232EA4FC8327C4FD9B
:1044E00063980700B7270002938727D06F00800AE0
:1044F000EFD08FF02326A4FEB7E701801385872233
:10450000EFF01FEB93070500638C07000325C4FE43
:10451000EFD08FF0B7270002938737D06F00800766
:10452000B7E701809387872283A747002324F4FEFF
:10453000032584FEEFF01FE2832784FE938787FF25
:104540002322F4FE832744FE23910700832744FEA1
:10455000130710002380E700832744FE239A0700F7
:10456000832744FE23A80700832744FE9387870000
:1045700013850700EFF01FD0832744FE03A74700F1
:104580008327C4FD23A0E7000325C4FEEFD0CFE8B6
:1045900093070000138507008320C10203248102D2
:1045A000130101036780000000000000130101FDFA
:1045B000232611022324810213040103232EA4FCC9
:1045C000B7E7018083A647220327C4FD93070700AE
:1045D00093971700B387E70093973700B387F600E8
:1045E0002326F4FEEFD04FE12324A4FE0327C4FDCD
:1045F0009307900063E8E7008327C4FE83C70700A2
:10460000639C0700032584FEEFD00FE1B72700026B
:10461000938717D06F0080068327C4FE9387870097
:1046200013850700EFF0DFD89307050063880700C4
:104630008327C4FE83D72700638C0700032584FEED
:10464000EFD08FDDB7270002938797D06F0000036C
:104650008327C4FE9387870093850700B7E701800F
:1046600013858722EFF0DFC48327C4FE2380070071
:10467000032584FEEFD04FDA93070000138507006F
:104680008320C1020324810213010103678000001B
:1046900000000000130101FC232E1102232C8102D3
:1046A000130401042326A4FC2324B4FCB7E70180EF
:1046B00083A647220327C4FC93070700939717009C
:1046C000B387E70093973700B387F6002324F4FEFF
:1046D000EFD08FD22322A4FE0327C4FC93079000BF
:1046E00063E8E700832784FE83C70700639C070015
:1046F000032544FEEFD04FD2B7270002938717D08F
:104700006F00002783A7C1DD638C0700032544FEEB
:10471000EFD08FD0B7270002938757D06F00402586
:10472000B7E701809387873483A707002320F4FE2F
:10473000832784FE83D7270063960704832784FE9C
:1047400083D7270093871700139707011357070193
:10475000832784FE2391E700832784FE032704FE3A
:1047600023A8E700832704FE03D76700832784FE7E
:10477000239AE700032544FEEFD00FCA93070000F9
:104780006F00001F832784FE83A70701032704FE11
:104790006318F702832784FE83D7270093871700C7
:1047A0001397070113570701832784FE2391E7001E
:1047B000032544FEEFD04FC6930700006F00401B57
:1047C000832784FC639C0700032544FEEFD0CFC4FD
:1047D000B7270002938747D06F008019B7E70180A1
:1047E00083D7473463800702B7270002938767D0D7
:1047F0002326F4FE13000000032544FEEFD0CFC1B2
:104800006F00C016832704FE9387C7031385070034
:10481000EF10D039832704FE83D7470093F7B7FF03
:104820001397070113570701832704FE2392E7001C
:10483000832704FE032784FE23A2E702832704FEC6
:104840009387C703232EF4FC832704FE83D74700F6
:1048500093E787001397070113570701832704FE87
:104860002392E700832784FE83A7070103D767000D
:10487000832704FE83D7670063F0E702832784FE63
:1048800003A70701832704FE83D7670093850700EA
:1048900013050700EF209013832784FE938787007A
:1048A0008325C4FD13850700EFF09FA6032784FC32
:1048B0009307F0FF630EF702832704FE83D74700B8
:1048C00093E707041397070113570701832704FE93
:1048D0002392E700832584FC032504FEEF20501B70
:1048E000032544FEEFD04FB3EFD0CFC56F00C00219
:1048F000832704FE83D7470093F7F7FB139707013D
:1049000013570701832704FE2392E700032544FE83
:10491000EFD08FB0EFD00FC3832704FE83D74700BB
:1049200093F7070463800704EFD00FAD2322A4FEA2
:10493000832704FE83D7470093F7F7FB13970701FC
:1049400013570701832704FE2392E700032544FE43
:10495000EFD08FACB7270002938777D02326F4FEE1
:104960006F00C000930700006F0080008327C4FE23
:10497000138507008320C10303248103130101046D
:104980006780000000000000130101FD23261102D2
:104990002324810213040103232EA4FCB7E7018022
:1049A00083A647220327C4FD9307070093971700A8
:1049B000B387E70093973700B387F6002326F4FE0A
:1049C000EFD08FA32324A4FE0327C4FD93079000F8
:1049D00063E8E7008327C4FE83C70700639C0700E2
:1049E000032584FEEFD04FA3B7270002938717D08B
:1049F0006F00801E83A7C1DD638C0700032584FE42
:104A0000EFD08FA1B7270002938757D06F00C01C4B
:104A1000B7E701809387873483A707002322F4FE3A
:104A20008327C4FE83D72700638A07008327C4FE39
:104A300083A70701032744FE630CF700032584FEC8
:104A4000EFD08F9DB7270002938717D06F00C01853
:104A50008327C4FE83D727009387F7FF13970701A7
:104A6000135707018327C4FE2391E7008327C4FE61
:104A700083D72700638A0700032584FEEFD0CF99F0
:104A8000930700006F0040158327C4FE83A707012A
:104A900003D767008327C4FE83D747016300F7026B
:104AA0008327C4FE03A707018327C4FE83D74701DA
:104AB0009385070013050700EF2040718327C4FE8C
:104AC0009387870013850700EFF09F8E93070500FB
:104AD000639E070E8327C4FE83A7C700938747FC06
:104AE0002320F4FE8327C4FE83A7C7001385070095
:104AF000EFF05F86832704FE83D7470093F777FFA5
:104B00001397070113570701832704FE2392E70039
:104B1000832704FE83D7470093F7070463840702C3
:104B2000032504FEEF20D018832704FE83D7470017
:104B300093F7F7FB1397070113570701832704FE29
:104B40002392E7008327C4FE130710002391E70098
:104B50008327C4FE032704FE23A8E700832704FE5F
:104B600003D767008327C4FE239AE700832704FE48
:104B700023A20702832704FE83D7470093F7270069
:104B8000639E0702832704FE83D7470093E747000D
:104B90001397070113570701832704FE2392E700A9
:104BA000832704FE1387C703832704FE83D7670088
:104BB0009385070013050700EF10407A032584FE54
:104BC000EFD08F85EFD00F986F00C000032584FED3
:104BD000EFD08F8493070000138507008320C10264
:104BE000032481021301010367800000000000001C
:104BF000130101FE232E8100130401022326A4FECB
:104C00008327C4FE0327C4FE23A2E7008327C4FE34
:104C10000327C4FE23A0E700130000000324C10102
:104C2000130101026780000000000000130101FE73
:104C3000232E8100130401022326A4FE2324B4FEA4
:104C40008327C4FE03A74700832784FE23A2E7002F
:104C5000832784FE0327C4FE23A0E7008327C4FE26
:104C600083A74700032784FE23A0E7008327C4FE11
:104C7000032784FE23A2E700130000000324C101E0
:104C8000130101026780000000000000130101FE13
:104C9000232E1100232C8100130401022326A4FEDD
:104CA0002324B4FE8327C4FE83A70700832584FE44
:104CB00013850700EFF09FF7130000008320C10168
:104CC000032481011301010267800000000000003D
:104CD000130101FE232E8100130401022326A4FEEA
:104CE0008327C4FE83A747000327C4FE03270700CA
:104CF00023A0E7008327C4FE83A707000327C4FE81
:104D00000327470023A2E7008327C4FE23A207004E
:104D10008327C4FE23A00700130000000324C10161
:104D2000130101026780000000000000130101FE72
:104D3000232E8100130401022326A4FE8327C4FE30
:104D400083A747000327C4FEB307F74093B71700B4
:104D500093F7F70F138507000324C1011301010224
:104D60006780000000000000130101FF23261100EE
:104D7000232481001304010183A701EB9305801B09
:104D800013850700EFE08FD313070500B7E7018015
:104D900023A8E722B7E7018083A7072363980700CA
:104DA000B7070002938717606F000002B7E7018022
:104DB00083A707231306801B9305000013850700B4
:104DC000EF50D06093070000138507008320C100D7
:104DD000032481001301010167800000000000002E
:104DE000130101FD23261102232481021304010370
:104DF00093070500232CB4FC13070600232AD4FCD8
:104E0000231FF4FC93070700231EF4FCB7E701807F
:104E100083A707232324F4FE232604FE6F00C00388
:104E2000832784FE83D74700639C07008327C4FE43
:104E300013871700832784FD23A0E7006F008002FB
:104E40008327C4FE938717002326F4FE832784FE5E
:104E50009387C7022324F4FE0327C4FE9307900020
:104E6000E3F0E7FC0327C4FE9307A0006318F700F4
:104E7000B7070002938747606F0080081306C002DF
:104E800093050000032584FEEF50505483A601EBE8
:104E90000357E4FD8357C4FDB307F702938507006A
:104EA00013850600EFE08FC113070500832784FEFA
:104EB00023A0E700832784FE83A7070063980700E9
:104EC000B7070002938727606F008003832784FE63
:104ED0000357E4FD2393E700832784FE0357C4FDB3
:104EE0002394E700832784FE130710002392E70032
:104EF000832744FD032784FE23A0E70093070000D7
:104F0000138507008320C1020324810213010103DA
:104F10006780000000000000130101FD232611023C
:104F20002324810213040103232EA4FC232CB4FCAC
:104F3000232AC4FC232404FE232604FE8327C4FD65
:104F40009387C70313850700EF1040468327C4FDEE
:104F500083D7470093F7B7FF13970701135707014C
:104F60008327C4FD2392E7008327C4FD9387C703EB
:104F70002324F4FE8327C4FD03D74700B72700008E
:104F8000B367F70013970701135707018327C4FD81
:104F90002392E700032584FDEFF05FD99307050016
:104FA000638A0700832584FE032584FDEFF01FCE6E
:104FB0006F008006832784FD83A74700938747FC03
:104FC0002326F4FE6F0080028327C4FD03D7670009
:104FD0008327C4FE83D767006364F7028327C4FE78
:104FE00083A70704938747FC2326F4FE8327C4FE88
:104FF0009387C703032784FDE318F7FC6F00800045
:10500000130000008327C4FE83A7C703832584FE03
:1050100013850700EFF09FC1032744FD9307F0FFBE
:105020006308F7028327C4FD83D7470093E707048B
:1050300013970701135707018327C4FD2392E70045
:10504000832544FD0325C4FDEF20802413000000C8
:10505000130000008320C102032481021301010315
:105060006780000000000000130101FD23261102EB
:105070002324810213040103232EA4FC8327C4FDEF
:1050800083A74700938747FC2326F4FE8327C4FDAC
:1050900083A7470013850700EFF09FC38327C4FE53
:1050A00003D74700B7E7FFFF9387F7FFB377F70012
:1050B00013970701135707018327C4FE2392E700C4
:1050C0008327C4FE83D7470093F70704638407024E
:1050D0000325C4FEEF20C03D8327C4FE83D74700CD
:1050E00093F7F7FB13970701135707018327C4FEB4
:1050F0002392E7008327C4FE83D7470093F7270056
:10510000639007048327C4FE83D7470093E74700D3
:1051100013970701135707018327C4FE2392E70063
:105120008327C4FE1387C7038327C4FE83D7670082
:105130009385070013050700EF10402213000000BD
:10514000130000008320C102032481021301010324
:105150006780000000000000130101FD23261102FA
:105160002324810213040103232EA4FC938705004A
:10517000232AC4FC2328D4FC231DF4FC9307070036
:10518000231CF4FC832744FD63980700B707000243
:105190009387C7606F00000D035784FDB7070100B8
:1051A0009387B7FF63F8E700B7070002938737607C
:1051B0006F00400B8357A4FD63860700835784FD6F
:1051C00063980700B70700029387D7606F008009D4
:1051D000EFC09FA22326A4FE835784FD9387470038
:1051E0001397070113570701930644FE8357A4FD45
:1051F00013060700832544FD13850700EFF05FBE0B
:105200002324A4FE832784FE638A07000325C4FEAB
:10521000EFC09FA0832784FE6F00C004832744FE55
:105220009387470113850700EFF09F9C832744FE77
:105230009387C70113850700EFF09F9B832744FEE8
:105240009387470213850700EFF09F9A832744FE58
:105250000357A4FD2397E7000325C4FEEFC0DF9B9F
:1052600093070000138507008320C10203248102F5
:10527000130101036780000000000000130101FC1E
:10528000232E1102232C8102130401042326A4FCE3
:105290002324B4FC2322C4FC2320D4FC232404FEB6
:1052A0008327C4FC9387F7FF2322F4FE032744FEE1
:1052B0009307900063F8E700B70700029387E76061
:1052C0006F000023832784FC63980700B707000260
:1052D0009387F7606F00C021832744FC6398070021
:1052E000B7070002938707616F008020832704FCC3
:1052F000638C070083A7C1DD63880700B70700023E
:10530000938787616F00C01EEFC01F8F2326A4FE06
:10531000B7E7018003A70723832644FE9307C00253
:10532000B387F602B307F7002320F4FE832704FEB9
:1053300083D74700639A0700B70700029387C761C6
:105340002324F4FE6F00001A832704FE83D707018D
:105350006398070A832704FC639A0700B7070002D3
:105360009387D7612324F4FE6F00C017B7E701804D
:1053700083D74734638A0700B707000293876760C3
:105380002324F4FE6F000016B7E70180938787346B
:1053900083A70700232EF4FC832704FE9387C7010D
:1053A000032604FC938507000325C4FDEFF0DFB658
:1053B0000325C4FEEFC05F86EFC0DF98EFC0DF8338
:1053C0002326A4FE8327C4FD83D7470093F7070451
:1053D000638607048327C4FD83D7470093F7F7FB51
:1053E00013970701135707018327C4FD2392E70092
:1053F000B7070002938777602324F4FE6F00800EC6
:10540000832704FE83D707019387F7FF13970701CC
:1054100013570701832704FE2398E700832704FE20
:1054200083A70700032704FE0357A700930607007E
:10543000032704FE035787003387E602B387E7009C
:10544000232CF4FC832784FD03A70700832784FC17
:1054500023A0E700832704FE83D7A70093871700C4
:105460001397070113570701832704FE2395E700CD
:10547000832704FE03D7A700832704FE83D7670092
:105480006316F700832704FE23950700832704FE95
:105490009387470113850700EFF05F8993070500A5
:1054A00063940702832704FE93874701138507004F
:1054B000EFF09FBB0325C4FEEFC00FF6EFC09F883F
:1054C000930700006F00C002832704FE83D7E70024
:1054D000938717001397070113570701832704FECB
:1054E0002397E7000325C4FEEFC00FF3832784FE54
:1054F000138507008320C1030324810313010104E2
:105500006780000000000000130101FC232E11023F
:10551000232C8102130401042326A4FC2324B4FCBD
:105520002322C4FC2320D4FC232404FE8327C4FCB0
:105530009387F7FF2322F4FE032744FE930790008E
:1055400063F8E700B7070002938717616F00002533
:10555000832784FC63980700B707000293872761BD
:105560006F00C023832744FC63980700B70700023D
:10557000938737616F008022832704FC638C0700C8
:1055800083A7C1DD63880700B70700029387976090
:105590006F00C020EFC04FE62326A4FEB7E70180CE
:1055A00003A70723832644FE9307C002B387F602AE
:1055B000B307F7002320F4FE832704FE83D74700B8
:1055C000639A0700B7070002938747612324F4FE1C
:1055D0006F00001C832704FE83D787001387070012
:1055E000832744FC637AF700B7070002938757616B
:1055F0002324F4FE6F00C019832704FE83D7E7003D
:105600006398070A832704FC639A0700B707000220
:10561000938767612324F4FE6F008017B7E701804A
:1056200083D74734638A0700B70700029387676010
:105630002324F4FE6F00C015B7E7018093878734F9
:1056400083A70700232EF4FC832704FE93874701DA
:10565000032604FC938507000325C4FDEFF0DF8BD0
:105660000325C4FEEFC04FDBEFC0CFEDEFC0CFD8B6
:105670002326A4FE8327C4FD83D7470093F707049E
:10568000638607048327C4FD83D7470093F7F7FB9E
:1056900013970701135707018327C4FD2392E700DF
:1056A000B7070002938777602324F4FE6F00400E53
:1056B000832704FE83D7E7009387F7FF139707013B
:1056C00013570701832704FE2397E700832704FE6F
:1056D00083A70700032704FE0357C70093060700AC
:1056E000032704FE035787003387E602B387E700EA
:1056F000232CF4FC032784FC832784FD23A0E700EC
:10570000832704FE83D7C7009387170013970701E9
:1057100013570701832704FE2396E700832704FE1F
:1057200003D7C700832704FE83D767006316F700FB
:10573000832704FE23960700832704FE9387C7016F
:1057400013850700EFF08FDE9307050063940702CF
:10575000832704FE9387C70113850700EFF0DF90CE
:105760000325C4FEEFC04FCBEFC0CFDD9307000091
:105770006F00C002832704FE83D7070193871700B9
:105780001397070113570701832704FE2398E700A7
:105790000325C4FEEFC04FC8832784FE138507008E
:1057A0008320C103032481031301010467800000E7
:1057B00000000000130101FD2326110223248102B1
:1057C00013040103232EA4FC8327C4FD9387F7FF52
:1057D0002324F4FE032784FE9307900063F8E70078
:1057E000B7070002938757606F000013EFC0CFC068
:1057F0002322A4FEB7E7018003A70723832684FEA4
:105800009307C002B387F602B307F7002320F4FE24
:10581000832704FE83D74700639A0700B707000277
:105820009387A7602326F4FE6F00400E832704FEB3
:105830009387C70113850700EFF04FCF930705004B
:10584000639A0700B7070002938787602326F4FE58
:105850006F00C00B832704FE938747011385070061
:10586000EFF0CFCC93070500639A0700B70700025B
:10587000938787602326F4FE6F004009832704FE88
:105880009387470213850700EFF04FCA930705007F
:10589000639A0700B7070002938787602326F4FE08
:1058A0006F00C006832704FE83D7E7001387070035
:1058B000832704FE83D70701B307F700032704FEFD
:1058C00003576700638AE700B70700029387B76052
:1058D0002326F4FE6F00800303A701EB832704FE59
:1058E00083A707009385070013050700EFD05FB576
:1058F0002326A4FE8327C4FE63980700832704FEA3
:10590000239207006F00800013000000032544FE6F
:10591000EFC08FB08327C4FE138507008320C10228
:1059200003248102130101036780000000000000CE
:10593000130101FE232E8100130401022326A4FE7D
:105940008327C4FE0327C4FE23A2E7008327C4FEE7
:105950000327C4FE23A0E700130000000324C101B5
:10596000130101026780000000000000130101FE26
:10597000232E8100130401022326A4FE2324B4FE57
:105980008327C4FE03A74700832784FE23A2E700E2
:10599000832784FE0327C4FE23A0E7008327C4FED9
:1059A00083A74700032784FE23A0E7008327C4FEC4
:1059B000032784FE23A2E700130000000324C10193
:1059C000130101026780000000000000130101FEC6
:1059D000232E1100232C8100130401022326A4FE90
:1059E0002324B4FE8327C4FE83A70700832584FEF7
:1059F00013850700EFF09FF7130000008320C1011B
:105A000003248101130101026780000000000000EF
:105A1000130101FE232E8100130401022326A4FE9C
:105A20008327C4FE83A747000327C4FE032707007C
:105A300023A0E7008327C4FE83A707000327C4FE33
:105A40000327470023A2E7008327C4FE23A2070001
:105A50008327C4FE23A00700130000000324C10114
:105A6000130101026780000000000000130101FE25
:105A7000232E8100130401022326A4FE8327C4FEE3
:105A800083A747000327C4FEB307F74093B7170067
:105A900093F7F70F138507000324C10113010102D7
:105AA0006780000000000000130101FE232E11009A
:105AB000232C810013040102B7E7018013854723DB
:105AC000EFF01FE783A701EB9305000A138507009A
:105AD000EFD0CFFE13070500B7E7018023AEE72222
